:020000040000FA
:060000000A128A110C280F
:10000800FE00030EF0000A08F1000A168A11762D88
:100018000A128A110F288313C230FD001430FE0023
:10002800AF30FF00A03084000A168A116B240A1230
:100038008A110A168A113E240A128A11EB000A163E
:100048008A113F240A128A11EC000A168A114024E8
:100058000A128A11F9000A168A1141240A128A1111
:10006800FA0083160313C201C301C401C501C60106
:10007800C701C801C901CA01CB0183120313E301F7
:10008800E401E501E601E701E801E901EA01FB0114
:1000980083010A128A154C2C83120313DE000A16F8
:1000A8008A1126270A128A113330831203136B062A
:1000B800031D5F286028282A0A168A1156240A1266
:1000C8008A11393083120313A0009130A1008030C7
:1000D800A2000A168A1143250A128A1183120313F1
:1000E8006808D8005807A03E840083130008A000C1
:1000F800840A00088403A1008630A2000A168A1127
:1001080043250A128A11333083120313A000913059
:10011800A100C030A2000A168A1143250A128A11CA
:10012800C630F8000A30F2000030F30083120313DF
:100138006908D800D9015808F4005908F5000A16CA
:100148008A11C1260A128A117208303E0A168A11CB
:100158007A240A128A11C730F8000A30F2000030F7
:10016800F300831203136908D800D9015808F40072
:100178005908F5000A168A116A260A128A117208A5
:10018800303E0A168A117A240A128A11C830F800F9
:100198003A300A168A117A240A128A11C930F800EC
:1001A8000A30F2000030F300831203136A08D80003
:1001B800D9015808F4005908F5000A168A11C12611
:1001C8000A128A117208303E0A168A117A240A1213
:1001D8008A11CA30F8000A30F2000030F3008312A6
:1001E80003136A08D800D9015808F4005908F50023
:1001F8000A168A116A260A128A117208303E0A16ED
:100208008A117A240A128A11FF3083120313EB0031
:10021800333083120313DA00BB30D900DF30D80043
:10022800D80B1429D90B1429DA0B14290A168A11A8
:1002380056240A128A11D33083120313A000903077
:10024800A1008030A2000A168A1143250A128A11D9
:10025800513083120313A0009130A100C030A200D6
:100268000A168A1143250A128A11003083120313D1
:10027800A0009030A1009030A2000A168A114325F0
:100288000A128A11831203136908D800D901580881
:10029800F2005908F3003C30F4000030F5000A166B
:1002A8008A11F5240A128A11831203136A08720745
:1002B800E3000030031801307307E4006408E60027
:1002C8006308E5006508F2006608F300F401F5012B
:1002D80000300A128A154A210A128A1175088312F7
:1002E8000313B1007408B0007308AF007208AE00C1
:1002F8003E30AD00EB30AC008530AB001F30AA00BB
:100308000A128A112D240A128A11831203132D0846
:10031800C7002C08C6002B08C5002A08C4000A120A
:100328008A116F270A128A1183120313450883164C
:100338000313CB0083120313440883160313CA0064
:10034800831203136508F2006608F300F401F5014F
:1003580000300A128A154A210A128A117508831276
:100368000313B1007408B0007308AF007208AE0040
:100378003D30AD00F530AC00C230AB008F30AA0084
:100388000A128A112D240A128A11831203132D08C6
:10039800C7002C08C6002B08C5002A08C4000A128A
:1003A8008A116F270A128A118312031345088316CC
:1003B8000313C90083120313440883160313C800E8
:1003C800831203136508F2006608F300F401F501CF
:1003D80000300A128A154A210A128A1175088312F6
:1003E8000313B1007408B0007308AF007208AE00C0
:1003F8003E30AD00D730AC000A30AB003D30AA002B
:100408000A128A112D240A128A11831203132D0845
:10041800C7002C08C6002B08C5002A08C4000A1209
:100428008A116F270A128A1183120313450883164B
:100438000313C70083120313440883160313C6006B
:1004480083120313121507151F305E06031D2D2A8C
:100458002E2A322A121107114430EC006908D800FC
:10046800D9015808F2005908F3003C30F400003074
:10047800F5000A168A11F5240A128A118312031349
:100488006A087207E5000030031801307307E600B8
:10049800083068020318512A522AC12A8316031306
:1004A8004A08831203136302D800831603134B0808
:1004B800031C4B0A831203136402D900590866020D
:1004C800031D682A58086502031C6B2A6C2A782ABF
:1004D8005B30A0009130A1008A30A2000A168A1170
:1004E80043250A128A11712B831603134A098312B2
:1004F8000313D800831603134B0983120313D9007F
:10050800D80A0319D90A831603134608831203135A
:100518005802DA00831603134708031C470A83129C
:1005280003135902DB0063085A07DC006408031848
:10053800640A5B07DD005D086602031DA52A5C08E6
:100548006502031CA82AA92AB52A3F30A0009130C9
:10055800A1008A30A2000A168A1143250A128A11BC
:10056800712B2D30A0009130A1008A30A2000A160C
:100578008A1143250A128A11712B08306806031D57
:10058800C62AC72A542B6508F2006608F300F4014E
:10059800F50100300A128A154A210A128A117508D3
:1005A80083120313CF007408CE007308CD007208BD
:1005B800CC006308F2006408F300F401F501003090
:1005C8000A128A154A210A128A117508831203131E
:1005D800CB007408CA007308C9007208C800630811
:1005E800F2006408F300F401F50100300A128A15DC
:1005F8004A210A128A11750883120313B10074087C
:10060800B0007308AF007208AE003E30AD00CC30C9
:10061800AC00CC30AB00CD30AA000A128A112D24D0
:100628000A128A11831203132D08C7002C08C6006A
:100638002B08C5002A08C4000A168A11D1240A12F8
:100648008A11831203134708D3004608D2004508CD
:10065800D1004408D0000A128A15A6200A128A116D
:10066800031C372B382B462B3F3083120313A00073
:100678009130A1008A30A2000A168A1143250A1275
:100688008A11712B2D3083120313A0009130A10021
:100698008A30A2000A168A1143250A128A11712B80
:1006A80009306806031D592B5A2B662B2D30A000E4
:1006B8009130A1008A30A2000A168A1143250A1235
:1006C8008A11712B5B30A0009130A1008030A2000C
:1006D8000A168A1143250A128A11C630F8000A3010
:1006E800F2000030F300831203136908D800D9011F
:1006F8005808F4005908F5000A168A11C1260A128A
:100708008A117208303E0A168A117A240A128A114E
:10071800C730F8000A30F2000030F30083120313E8
:100728006908D800D9015808F4005908F5000A16D4
:100738008A116A260A128A117208303E0A168A112C
:100748007A240A128A11C830F8003A300A168A1137
:100758007A240A128A11C930F8000A30F2000030EF
:10076800F300831203136A08D800D9015808F4006B
:100778005908F5000A168A11C1260A128A11720848
:10078800303E0A168A117A240A128A11CA30F800F1
:100798000A30F2000030F300831203136A08D8000D
:1007A800D9015808F4005908F5000A168A116A2672
:1007B8000A128A117208303E0A168A117A240A121D
:1007C8008A11831203136908031DEB2BEC2B2C2CC5
:1007D8006A08031DF02BF12B2C2C0A168A115624BB
:1007E8000A128A1183120313071187143030A000EC
:1007F8009030A1008030A2000A168A1143250A12FF
:100808008A113F3083120313A0009030A100C0303A
:10081800A2000A168A1143250A128A11333083125C
:100828000313DA00BB30D900DF30D800D80B1A2CFC
:10083800D90B1A2CDA0B1A2C8312031387100130E8
:10084800EC001130EB000A168A1156240A128A119C
:100858000800831203132D08B7008030B7052D0850
:10086800B2003207BD00AC1F3A2C3B2C3C2C3D1487
:100878003D080319402C412C502C3D0A031D452CE2
:10088800462C4E2C0030AD000030AC000030AB00E0
:100898000030AA00AC17582C0030AD000030AC0076
:1008A8000030AB000030AA0031088039B7063108A3
:1008B800B2003207B800B01F622C632C642C3814C5
:1008C80038080319682C692C782C380A031D6D2CFC
:1008D8006E2C762C0030B1000030B0000030AF0034
:1008E8000030AE00B017802C0030B1000030B000EE
:1008F8000030AF000030AE0038080319842C852C76
:100908008A2C3D08031D892C8A2C932C0030AD00BD
:100918000030AC000030AB000030AA006E2F2A086F
:10092800F20030080A168A111A250A128A11730869
:1009380083120313C3007208C2004208B200B30155
:10094800B401B5013508BC003408BB003308BA004F
:100958003208B9004308B200B301B401B501350843
:10096800C1003408C0003308BF003208BE002B089D
:10097800F2002F080A168A111A250A128A1173081A
:1009880083120313C3007208C2004208B200B30105
:10099800B401B5013208B907330803110318013E41
:1009A8000319D72CBA07340803110318013E031999
:1009B800DE2CBB07350803110318013E0319E52C8B
:1009C800BC074308B200B301B401B5013208BE0741
:1009D800330803110318013E0319F32CBF07340829
:1009E80003110318013E0319FA2CC0073508031137
:1009F8000318013E0319012DC1072C08F2002E0827
:100A08000A168A111A250A128A1173088312031307
:100A1800C3007208C2004208B200B301B401B501B4
:100A28003208B907330803110318013E03191D2DB5
:100A3800BA07340803110318013E0319242DBB0714
:100A4800350803110318013E03192B2DBC07430871
:100A5800B200B301B401B5013208BE07330803116F
:100A68000318013E0319392DBF0734080311031871
:100A7800013E0319402DC007350803110318013E34
:100A88000319472DC1070830B2000310B90DBA0D7C
:100A9800BB0DBC0DB20B492D2B08F2002E080A160F
:100AA8008A111A250A128A11730883120313C300C4
:100AB8007208C2004208B2004308B300B401B5018D
:100AC8003208B907330803110318013E03196D2DC5
:100AD800BA07340803110318013E0319742DBB0724
:100AE800350803110318013E03197B2DBC072A089A
:100AF800F2002F080A168A111A250A128A11730899
:100B080083120313C3007208C2004208B2004308EC
:100B1800B300B401B5013208B9073308031103184B
:100B2800013E0319982DBA07340803110318013E32
:100B380003199F2DBB07350803110318013E03193C
:100B4800A62DBC070830B2000310B90DBA0DBB0DB5
:100B5800BC0DB20BA82D2A08F2002E080A168A111D
:100B68001A250A128A11730883120313C300720824
:100B7800C2004208B2004308B300B401B50132080C
:100B8800B907330803110318013E0319CC2DBA071E
:100B9800340803110318013E0319D32DBB07350888
:100BA80003110318013E0319DA2DBC072B08F200C4
:100BB80030080A168A111A250A128A117308831234
:100BC8000313C3007208C2004208B2004308B3000E
:100BD800B401B5013208BE07330803110318013EFA
:100BE8000319F72DBF07340803110318013E031931
:100BF800FE2DC007350803110318013E0319052E01
:100C0800C1072C08F2002F080A168A111A250A12A1
:100C18008A11730883120313C3007208C2004208C2
:100C2800B2004308B300B401B5013208BE07330867
:100C380003110318013E0319222EBF0734080311BC
:100C48000318013E0319292EC0073508031103189C
:100C5800013E0319302EC1072C08F20030080A168D
:100C68008A111A250A128A11730883120313C30002
:100C78007208C2004208B2004308B300B401B501CB
:100C880008300310B20DB30DB40DB50DFF3E031DB2
:100C9800452E3208BE07330803110318013E031915
:100CA800562EBF07340803110318013E03195D2EA1
:100CB800C007350803110318013E0319642EC10744
:100CC8003908B2003A08B3003B08B4003C08B50044
:100CD80018300310B50CB40CB30CB20CFF3E031D56
:100CE8006D2E3208BE07330803110318013E03199D
:100CF8007E2EBF07340803110318013E0319852E01
:100D0800C007350803110318013E03198C2EC107CB
:100D18000830B2000310B90DBA0DBB0DBC0DB20BF3
:100D28008E2E3D083807B200B301B30D3208823E5B
:100D3800C20033080318013EFF3EC300C02E013035
:100D4800B2000310BE0DBF0DC00DC10DB20BA52E14
:100D5800BC1FAF2EB02EB12E3E140130B2000310CE
:100D6800B90DBA0DBB0DBC0DB20BB32EFF30C207C7
:100D78000318C30AFF30C307C01FC32EC42EA32EF7
:100D8800B801BC1FC82EC92EE52EFF303905B200A8
:100D9800FF303A05B300FF303B05B4007F303C0517
:100DA800B50035083404330432040319DC2EDD2E73
:100DB800E02E0130B800E52E3E1CE32EE42EE52E91
:100DC800DD2E38080319E92EEA2E1B2F0130BE0745
:100DD800003003180130BF07003003180130C00786
:100DE800003003180130C107411CFB2EFC2E1B2FBD
:100DF8003E08B2003F08B3004008B4004108B500FF
:100E08000130B600350DB50CB40CB30CB20CB60BF2
:100E1800062F3508C1003408C0003308BF00320867
:100E2800BE000130C2070318C30A0030C3074308D5
:100E3800803AFF0080307F02031D242FFF304202DA
:100E4800031C272F282F332F7F3083120313C10051
:100E58008030C0000030BF000030BE00642F831215
:100E680003134308803AFF0080307F02031D3E2FA2
:100E7800013042020318412F422F4E2F00308312B7
:100E88000313C1000030C0000030BF000030BE00B6
:100E9800B701642F831203134208BD00FF30BE055B
:100EA800FF30BF057F30C0050030C1053D1C5D2FF8
:100EB8005E2F5F2FC0173D08B2000310320CC1002F
:100EC8003708C1044108AD004008AC003F08AB003A
:100ED8003E08AA000800031083120313460D470DAD
:100EE800F7007708031D792F7A2F832F0030C7006A
:100EF8000030C6000030C5000030C400E42F4408AC
:100F0800C8004508C9004608CA004708CB001F307A
:100F18000310CB0CCA0CC90CC80CFF3E031D8C2F48
:100F28004808F600C617FF30C405FF30C505FF3076
:100F3800C6050030C7059630F702F71FA42FA52F66
:100F4800BD2F7708803A973E0318AB2FAC2FAD2FF3
:100F58007A2F01300310C70CC60CC50CC40CFF3E19
:100F6800031DAE2F0130F707031DBB2FBC2FAD2F7C
:100F7800D42F20307702031CC22FC32FCF2F7A2FF4
:100F88000130C8000310C40DC50DC60DC70DC80B30
:100F9800C62F0130F7027708031DD32FD42FC42F93
:100FA80076080319D82FD92FE42FC409C509C60913
:100FB800C709C40A0319C50A0319C60A0319C70AC7
:100FC80008000A168A114B240A128A110A128A1575
:100FD80001200A128A110A168A1142240A128A1159
:100FE8008B170B178316031387100711831203132C
:060FF8008710071108003C
:101002008316031306083F38860008008312031371
:10101200A70022306B06031D0F28102819280A1674
:101022008A1156240A128A15FF3083120313EB0029
:1010320037302706031D1E281F282F280A168A115B
:1010420056240A128A15013083120313E70705306A
:101052006706031D2D282E282F28E7015B30A000EC
:101062009030A1008030A2000A168A1143250A128C
:101072008A15C030F8002A300A168A117A240A1218
:101082008A15831203136708A5002507B83E84005A
:1010920083130008A000840A00088403A100C23060
:1010A200A2000A168A1143250A128A150530F20097
:1010B2000030F300831203136708013EF40000308E
:1010C20003180130F5000A168A116A260A128A15D7
:1010D200720883120313A5002507B83E8400831308
:1010E2000008A000840A00088403A1009230A20034
:1010F2000A168A1143250A128A150530F2000030B9
:10110200F300831203136708023EF4000030031851
:101112000130F5000A168A116A260A128A15720827
:1011220083120313A5002507B83E84008313000829
:10113200A000840A00088403A100D230A2000A168B
:101142008A1143250A128A150800003083120313FC
:101152004C05D40000304D05D50080304E05D60038
:101162007F304F05D7005708560455045404031D19
:10117200BB28BC28C4280030CF000030CE0000308D
:10118200CD000030CC0000305005D40000305105B5
:10119200D50080305205D6007F305305D70057085E
:1011A200560455045404031DD728D828E0280030DB
:1011B200D3000030D2000030D1000030D000CF1F69
:1011C200E328E42808290030D4000030D50000309C
:1011D200D6008030D7004C08D4024D08031C4D0FB6
:1011E200F328F428D5024E08031C4E0FF928FA28DA
:1011F200D6024F08031C4F0FFF280029D7025708B9
:10120200CF005608CE005508CD005408CC00D31F9D
:101212000B290C2930290030D4000030D5000030D1
:10122200D6008030D7005008D4025108031C510F59
:101232001B291C29D5025208031C520F21292229DD
:10124200D6025308031C530F27292829D70257080F
:10125200D3005608D2005508D1005408D00080307F
:10126200CF068030D30653084F02031D422952088D
:101272004E02031D422951084D02031D4229500806
:101282004C02031845294629482903104929031409
:10129200080083120313A4002408031951295229B8
:1012A2006629F51F5529562966297209A600730970
:1012B200A7007409A8007509A900A60A0319A70ABC
:1012C2000319A80A0319A90A6E297508A900740846
:1012D200A8007308A7007208A600750874047304B6
:1012E2007204031D752976297F290030F50000302C
:1012F200F4000030F3000030F200FF299630A50020
:101302008D290130A50701300310A90CA80CA70CE8
:10131200A60CFF3E031D8529FE302905031D9229D7
:1013220093298229AD290130A5070130A607003093
:1013320003180130A707003003180130A807003056
:1013420003180130A90701300310A90CA80CA70C3F
:10135200A60CFF3E031DA529FF302905031DB22956
:10136200B3299429BF290130A5020130A00003103E
:10137200A60DA70DA80DA90DA00BB829A81BC2295F
:10138200C329C929023025020318C829C929B42949
:101392002518CC29CD29D529FF30A605FF30A70570
:1013A2007F30A805FF30A9050310A50C2508A00071
:1013B200A101A201A30118300310A00DA10DA20DDD
:1013C200A30DFF3E031DDD292008A6042108A70462
:1013D2002208A8042308A90424080319F129F229E0
:1013E200F729F51FF529F629F729A9172908F50084
:1013F2002808F4002708F3002608F20008008312E8
:101402000313A70011306B06031D082A092A122AAA
:101412000A168A1156240A128A15FF308312031300
:10142200EB0037302706031D172A182A282A0A1626
:101432008A1156240A128A15013083120313E8070F
:101442000C306806031D262A272A282AE8011030B4
:10145200A0009030A1008030A2000A168A11432514
:101462000A128A15C030F8002A300A168A117A2424
:101472000A128A150A308312031368020318422AD9
:10148200432A812A6808A5002507A03E8400831309
:101492000008A000840A00088403A100C130A20051
:1014A2000A168A1143250A128A1583120313680841
:1014B200A5002507A23E840083130008A000840A29
:1014C20000088403A1009130A2000A168A11432564
:1014D2000A128A15831203136808A5002507A43E81
:1014E200840083130008A000840A00088403A1007A
:1014F200D130A2000A168A1143250A128A15022B3C
:101502000A306806031D862A872AC32A6808A500AE
:101512002507A03E840083130008A000840A000867
:101522008403A100C130A2000A168A1143250A12BF
:101532008A15831203136808A5002507A23E8400BA
:1015420083130008A000840A00088403A1009130DC
:10155200A2000A168A1143250A128A15831603135A
:10156200200883120313A000831603132108831299
:101572000313A100D130A2000A168A1143250A12D0
:101582008A15022B0B306806031DC82AC92A022BB2
:101592006808A5002507A03E840083130008A00068
:1015A200840A00088403A100C130A2000A168A112D
:1015B20043250A128A158316031320088312031384
:1015C200A00083160313210883120313A100913094
:1015D200A2000A168A1143250A128A1583160313DA
:1015E200220883120313A000831603132308831215
:1015F2000313A100D130A2000A168A1143250A1250
:101602008A150800232CE9012130EA004B2CE9015C
:101612002930EA004B2CE9012D30EA004B2C6708F7
:10162200003A0319082B013A0319042B033A031950
:10163200082B013A03190C2B073A03190C2B4B2CDC
:10164200E9012B30EA004B2CE9013230EA004B2C45
:10165200E9013930EA004B2C6708003A0319252BBF
:10166200013A0319212B033A0319252B013A0319D5
:10167200292B073A0319292B4B2CE9011A30EA00CE
:101682004B2CE9011F30EA004B2C6708003A031982
:101692003E2B013A03193E2B033A03193E2B013A22
:1016A2000319422B073A0319422B4B2C0130E90054
:1016B2001030EA004B2C6708003A0319572B013A05
:1016C2000319572B033A0319572B013A0319572BC6
:1016D200073A0319572B4B2C0130E9002430EA005A
:1016E2004B2C6708003A03196D2B013A03196D2B35
:1016F200033A03196D2B013A03196D2B073A0319AB
:101702006D2B4B2CE9012430EA004B2C6708003A80
:101712000319422B013A0319422B033A0319422BB4
:10172200013A0319832B073A0319832B4B2CE90146
:101732001D30EA004B2C6708003A0319982B013A36
:101742000319982B033A0319982B013A0319982B82
:10175200073A0319982B4B2CE9012E30EA004B2C47
:10176200E9013530EA004B2C0130E900EA014B2C4B
:101772006708003A0319B12B013A0319AD2B033A5A
:101782000319B12B013A0319B52B073A0319B52BEB
:101792004B2CE9011230EA004B2CE9011430EA002B
:1017A2004B2C6708003A0319CE2B013A0319CA2BB6
:1017B200033A0319CE2B013A0319CE2B073A031928
:1017C200CE2B4B2CE9010630EA004B2C6708003A7D
:1017D2000319E32B013A0319E32B033A0319E32B11
:1017E200013A0319E32B073A0319E32B4B2CE901C6
:1017F2001030EA004B2CE9011530EA004B2C670847
:10180200003A0319FC2B013A0319F82B033A031986
:10181200FC2B013A03193E2B073A03193E2B4B2CA2
:10182200252B6708003A0319252B013A0319112CBD
:10183200033A0319252B013A0319252B073A0319F9
:10184200252B4B2C831203136808003A0319102B23
:10185200013A03192D2B033A0319462B013A0319B6
:101862005C2B073A0319722B013A0319872B033AAF
:1018720003199C2B013A0319B92B0F3A0319D22BE6
:10188200013A0319E72B033A0319002C013A031911
:10189200122C4B2C08000A128A11E5270A128A150B
:1018A2004D3083120313A0009030A1008130A200BA
:1018B2000A168A1143250A128A150E30831203135F
:1018C200A0009130A100C530A2000A168A1143255A
:1018D2000A128A15203083120313A0009030A1004F
:1018E2009130A2000A168A1143250A128A15C12CC8
:1018F200003083160313CF000030CE000B30CD0032
:10190200B830CC00013083120313DF000030E00056
:101912000030E1000030E2005F0883160313CC02BE
:10192200831203136008031C600F982C9B2C8316F0
:101932000313CD02831203136108031C610FA22C4F
:10194200A52C83160313CE02831203136208031C11
:10195200620FAC2CAF2C83160313CF028312031336
:10196200831603134C0A031DC02C4D0A031DC02C01
:101972004E0A031DC02C4F0A031DC02CC12C832C00
:1019820001300A168A11C3250A128A152F3A031D3D
:10199200CB2CCC2C792C0A168A1156240A128A15C1
:1019A2000A168A1191270A128A1501300A168A111B
:1019B200C3250A128A1583160313D200B830D00049
:1019C2000B30D1000130D0020030031CD103D10210
:1019D200500A031DF02C510A031DF02CF12CE32CAC
:1019E20099305206031DF62CF72C032D8312031394
:1019F2006C03031DFD2CFE2C032D0230EC00223063
:101A0200EB00942D9930831603135206031D0A2D01
:101A12000B2D472D0230831203136C06031D122D6A
:101A2200132D472D0330EC000A168A1156240A1290
:101A32008A15823083120313A0009030A1008030F7
:101A4200A2000A168A1143250A128A15C830831287
:101A52000313A0009030A100C030A2000A168A1120
:101A620043250A128A15FB3083120313A00090301B
:101A7200A1009030A2000A168A1143250A128A1583
:101A82000A128A1503230A128A15942D2F308316FF
:101A920003135206031D4E2D4F2D5C2D443083122D
:101AA20003136C06031D562D572D5C2D0430EC00DC
:101AB20012150715942D942D8316031352080A123A
:101AC2008A1500220A128A15D62C8316031352088D
:101AD2000A128A1507200A128A15D62C2F3083166D
:101AE20003135206031D762D772D7E2D04308312AB
:101AF2000313EC003330EB00D62C1F305206031DCB
:101B0200832D842DA42D013083120313EC00113098
:101B1200EB00D62C8316031352080A128A115020A6
:101B22000A128A15D62C831203136C08013A031980
:101B32005D2D033A0319662D013A03196F2D073AF9
:101B420003198B2DD62CD62C0A128A110C2883123B
:101B520003132308F2008030F2052308A8002807A7
:101B6200F400A21FB52DB62DB72D741474080319F5
:101B7200BB2DBC2DCC2D740A031DC02DC12DC92D2A
:101B82000030A3000030A2000030A1000030A0000D
:101B9200A217A301D42D0030A3000030A200003010
:101BA200A1000030A0002708F3008030F30573087D
:101BB20072060319DD2DDE2DDF2D72172708A8000E
:101BC2002807F300A61FE62DE72DE82D73147308EE
:101BD2000319EC2DED2DFD2D730A031DF12DF22DB0
:101BE200FA2D0030A7000030A6000030A50000301A
:101BF200A400A617A701052E0030A7000030A600FA
:101C02000030A5000030A4007408730203180A2EE5
:101C12000B2E2F2E721F0E2E0F2E112E8030F2063B
:101C22007408F5007308F4007508F3002008F50045
:101C32002408A0007508A4002108F5002508A100C9
:101C42007508A5002208F5002608A2007508A6005E
:101C52002308F5002708A3007508A700F5017308FB
:101C6200A800A9012908AB0074082802AA00031CD5
:101C7200AB032B08803AFF0080307F02031D432E06
:101C82001A302A02031C462E472E802E831203137B
:101C92002308220421042004031D502E522E013059
:101CA200532E0030F5000030A3000030A2000030B7
:101CB200A1000030A0007308F400862E751C622E6D
:101CC200632E6C2E750883120313A8000310280CD0
:101CD2000138F5006E2E0310F50C83120313201C3D
:101CE200732E742E752EF5170130A800230DA30C48
:101CF200A20CA10CA00CA80B772E0130F4077308DC
:101D02007402031C852E862E5F2E721B892E8A2E4C
:101D1200D52E7408031D8E2E8F2E9A2E003083121C
:101D22000313A3000030A2000030A1000030A00085
:101D3200FF2F831203132408A00725080311031899
:101D4200013E0319A52EA107260803110318013E1F
:101D52000319AC2EA207270803110318013E031929
:101D6200B32EA307231CB62EB72E8B2F751CBA2EAB
:101D7200BB2EC22E7508A8000310280C0138F500EE
:101D8200C42E0310F50C201CC72EC82EC92EF51721
:101D92000130A800230DA30CA20CA10CA00CA80BCF
:101DA200CB2E0130F4078B2F831203132308803AC2
:101DB200FF002708803A7F02031DE92E260822022F
:101DC200031DE92E25082102031DE92E2408200205
:101DD2000318EC2EED2E442FFF30A800FF30A9008F
:101DE200FF30AA00FF30AB002408AC002508AD008C
:101DF2002608AE002708AF002008AC022108031C09
:101E0200210F042F052FAD022208031C220F0A2FD7
:101E12000B2FAE022308031C230F102F112FAF022A
:101E22002C08A8072D0803182D0F182F192FA90702
:101E32002E0803182E0F1E2F1F2FAA072F08031874
:101E42002F0AAB072B08A3002A08A2002908A10029
:101E52002808A0008030F2067503FF3AF5007508E5
:101E6200031D342F352F522F0130A00700300318E5
:101E72000130A107003003180130A2070030031817
:101E82000130A307522F2408A0022508031C250FA6
:101E9200A1022608031C260FA2022708031C270FF3
:101EA200A3022308220421042004031D592F5A2FC0
:101EB200872F7508031D5E2F5F2F872F0030A30029
:101EC2000030A2000030A1000030A000FF2F01303E
:101ED200A8000310A00DA10DA20DA30DA80B6A2F3F
:101EE200F51F742F752F762F2014751C792F7A2FDA
:101EF2007E2F0314750DF500802F0310F50D740865
:101F02000319842F852F872F0130F402A21F8A2FF5
:101F12008B2F682FF301F51F8F2F902F9E2F75089F
:101F22007F390319952F962F992F0130F3009E2F99
:101F3200201C9C2F9D2F9E2F962F73080319A22FD2
:101F4200A32FD52F0130A007003003180130A107BD
:101F5200003003180130A207003003180130A30734
:101F6200231CB42FB52FD52F2008A8002108A900C3
:101F72002208AA002308AB000130AC002B0DAB0CE9
:101F8200AA0CA90CA80CAC0BBF2F2B08A3002A0883
:101F9200A2002908A1002808A000740A0319D22F60
:101FA200D32FD52F0130F407740A0319D92FDA2F52
:101FB200DF2F7408031DDE2FDF2FED2F0030A3006B
:101FC2000030A2000030A1000030A0007408031D00
:101FD200EB2FEC2FED2FF201741CF02FF12FF32FCA
:101FE200A217F52F7F30A2057408A8000310280C51
:101FF200A300F21FFD2FFE2FFF2FA3170800353479
:102002003A34533454344134523454342034363410
:102012003A3450344134553453344534003457340F
:1020220061347334683469346E3467342034503424
:1020320072346F346734723461346D34003457341F
:1020420061347334683469346E34673420344D3407
:1020520061346334683469346E3465340034503426
:10206200723467346D34203463346F346D347034B9
:102072006C346534743465346434003452346534F9
:102082006D346F3476346534203463346C346F3499
:1020920074346834733400345034723465347334B5
:1020A200733420344B346534793435342034743409
:1020B2006F3400345734413454344534523420346C
:1020C2004C344534563445344C343A34003450346C
:1020D2006C346534613473346534203463346C3465
:1020E2006F3473346534003444346F346F34723473
:1020F20020346934733420346F34703465346E3470
:1021020000345034723465347334733420345334AD
:1021120077346934743463346834003450346F343F
:1021220077346534723469346E34673420346F34F2
:102132006E340034453463346F34203463346F3486
:10214200743474346F346E34733400344134713403
:10215200753461342034733474346F3472346534BA
:10216200003453347434613469346E342034773437
:102172006134733468340034423465346434203456
:1021820073346834653465347434733400345334CE
:10219200573435343A34203453345434413452347D
:1021A20054340034463475346E34633474346934D0
:1021B2006F346E343A3400344434653464346934F0
:1021C20063346134743465347334003457346134A5
:1021D2007334683420346F346E346C3479340034A0
:1021E200523469346E34733465342B34443472346B
:1021F200793400345334573436343A342034533437
:1022020054344F34503400344434723479342034EA
:102212006F346E346C347934003450346F34773424
:102222006534723420344F346E34003457346F3492
:102232006F346C3465346E34733400344D34653429
:102242006434693475346D34003457346834693415
:1022520074346534733400345334703469346E34F6
:1022620020340034543469346D3465343A340034E3
:10227200503472346F3467343A340034523469342F
:102282006E347334653400344434613469346C34EC
:102292007934003448346534613476347934003426
:1022A200543469346D3465340034483469346734E5
:1022B2006834003457346134733468340034413440
:1022C200753474346F34003464346F346F34723460
:1022D20000344C346F34773400344D346134783404
:1022E2000034FF1B7C2983137F1883170008840A9C
:1022F2000319FF0A08007F087F398A000408840A4C
:062302000319FF0A82002E
:10287C001134013401340134FA30831603139200FD
:10288C008C1483120313121108008316031388018E
:10289C00091189100A168A1113260A168A110800C2
:1028AC00F20101300A168A118F240A168A1104309B
:1028BC00F7003D30F600F60B612CF70B612C662C03
:1028CC0008007E088A007F0882000A168A11672495
:1028DC000A168A118000840A04087D060319003444
:1028EC00FF0A0319FE0A6B2C83120313A400F201D6
:1028FC0078080A168A118F240A168A11F201F20A34
:10290C008312031324080A168A118F240A168A11BB
:10291C000800F5007218932C972C831203130915D9
:10292C009A2C831203130911750888008914A63098
:10293C00F300F30B9F2C00008312031389101B3040
:10294C00F4009E30F300F30BA92CF40BA92C00001F
:10295C000800453491344B349134DD3490342634B2
:10296C009134B23490349B34903417349134BD3458
:10297C009034F134903405349134E7349034A734E6
:10298C009034603491346A3491341F349134563419
:10299C0091346E349134803083120313C7064B0884
:1029AC00A3004A08A2004908A1004808A000470853
:1029BC00A7004608A6004508A5004408A4000A1272
:1029CC008A15A8250A168A11831203132308C70037
:1029DC002208C6002108C5002008C4000800F60122
:1029EC00F701721CFA2CFB2C012D7408F607031846
:1029FC00F70A7508F70701300310F40DF50DFF3ECB
:102A0C00031D022D01300310F30CF20CFF3E031DCD
:102A1C00092D72087304031D142D152DF72C77083E
:102A2C00F3007608F200080083120313A400A0013F
:102A3C00A1017208F400F5017408A2007508A30046
:102A4C00241C292D2A2D302D2208A0070318A10A99
:102A5C002308A10701300310A20DA30DFF3E031D97
:102A6C00312D0310A40C2408031D3D2D3E2D262DC5
:102A7C002108F3002008F2000800F201831203136E
:102A8C0022080A168A118F240A168A11652DF20162
:102A9C00F20A2108FF00200884000A168A1172210C
:102AAC000A168A110A168A118F240A168A11013005
:102ABC0083120313A0070318A10A0030A107831285
:102ACC0003132108FF00200884000A168A117221C2
:102ADC000A168A11003A031D742D752D4D2D080010
:102AEC00831203138C1C7B2D7C2DBC2D0130831683
:102AFC000313C207003003180130C307003003185A
:102B0C000130C407003003180130C50720304206DD
:102B1C004E300319430644044504031D962D972D8E
:102B2C00B92D831203136A0803199D2D9E2DA12D17
:102B3C000130EA02AF2D6A08031DA52DA62DAF2D7D
:102B4C0069080319AA2DAB2DAF2D0130E9023C30D9
:102B5C00EA00003083160313C5000030C4000030B7
:102B6C00C3000030C200831203138C1071088A005A
:102B7C00700E8300FE0E7E0E0900831203130608EE
:102B8C00F2003F30F2053F3072060319CE2DCF2DE7
:102B9C00D92D7A080319D32DD42DD92DFA01720809
:102BAC00FB00F901112E3F307206031DDE2DDF2DC7
:102BBC00EE2D7A08031DE32DE42DEE2D0130FA00E5
:102BCC000F3079020318EB2DEC2D112E7B08122EF1
:102BDC007A08031DF22DF32DFC2D10307902031809
:102BEC00F82DF92DFC2D0130F907112E7A08031D53
:102BFC00002E012E112E10307906031D062E072EE5
:102C0C00112E37307206031D0C2E0D2E112E013095
:102C1C00F9079930122E3F300800C330F700CD3041
:102C2C00F600F60B172EF70B172EF20133300A169F
:102C3C008A118F240A168A111B30F7009E30F60079
:102C4C00F60B262EF70B262E0000F20133300A1657
:102C5C008A118F240A168A11A630F600F60B342E30
:102C6C000000F20133300A168A118F240A168A11D9
:102C7C003F2E402E0000F2013C300A168A118F24A0
:102C8C000A168A11A630F600F60B4A2E0000F20145
:102C9C0001300A168A118F240A168A110430F700A3
:102CAC003D30F600F60B582EF70B582E5D2EF20128
:102CBC000C300A168A118F240A168A11A630F600D7
:102CCC00F60B662E00000800F701F51F6E2E6F2E16
:102CDC00762EF409F509F40A0319F50A0130F70008
:102CEC00F31F792E7A2E7F2EF209F309F20A0319BB
:102CFC00F30A720873040319842E852EB22E013048
:102D0C00F600912E01300310F20DF30DFF3E031D62
:102D1C00892E0130F607F31F942E952E882E7308FA
:102D2C007502031D9B2E72087402031C9E2E9F2E8F
:102D3C00A52E7208F4027308031CF503F50201308A
:102D4C000310F30CF20CFF3E031DA62E0130F6020D
:102D5C00031DB12EB22E952E77080319B62EB72E61
:102D6C00BC2EF409F509F40A0319F50A7508F300E9
:102D7C007408F200080083120313A101F31FC72E7D
:102D8C00C82ECF2EF209F309F20A0319F30A013007
:102D9C00A100F51FD22ED32EDA2EF409F509F40A70
:102DAC000319F50A0130A106A201A30172087304EC
:102DBC000319E12EE22E172F0130A000EE2E013068
:102DCC000310F20DF30DFF3E031DE62E0130A0079C
:102DDC00F31FF12EF22EE52E01300310A20DA30DE0
:102DEC00FF3E031DF32E73087502031DFF2E7208A0
:102DFC007402031C022F032F0A2F7208F4027308AB
:102E0C00031CF503F502221401300310F30CF20C31
:102E1C00FF3E031D0B2F0130A002031D162F172F91
:102E2C00F22E210803191B2F1C2F212FA209A309F5
:102E3C00A20A0319A30A2308F3002208F2000800CF
:102E4C008312031306182B2F2C2F902F07111211FE
:102E5C0087140A168A1156240A168A1175308312A1
:102E6C000313A0009030A1008030A2000A168A1132
:102E7C0043250A168A11683083120313A000903080
:102E8C00A100C030A2000A168A1143250A168A1125
:102E9C00653083120313A0009130A1009030A20082
:102EAC000A168A1143250A168A1183120313061C6B
:102EBC00602F612F5B2F0715121587100A168A11C8
:102ECC0056240A168A11D33083120313A0009030B3
:102EDC00A1008030A2000A168A1143250A168A1115
:102EEC00513083120313A0009130A100C030A20016
:102EFC000A168A1143250A168A110030831203130D
:102F0C00A0009030A1009030A2000A168A1143252F
:102F1C000A168A11080083120313A8012808803EA0
:102F2C00F800FF300A168A117A240A168A11033027
:102F3C0083120313A7008A30A6005530A500A50BF9
:102F4C00A52FA60BA52FA70BA52F013083120313BA
:102F5C00A80710302802031CB42FB52F942F8F30E4
:102F6C00A0009030A100C130A2000A168A1143259E
:102F7C000A168A11203083120313A0009030A1008E
:102F8C009130A2000A168A1143250A168A1183125F
:102F9C000313A9012908D03EF800FF300A168A1144
:102FAC007A240A168A11033083120313A7008A307D
:102FBC00A6005530A500A50BE12FA60BE12FA70B02
:102FCC00E12F013083120313A90710302902031CCF
:102FDC00F02FF12FD02F333083120313A700BB3007
:102FEC00A600DF30A500A50BF92FA60BF92FA70B18
:042FFC00F92F0800A1
:02400E00FB3F76
:00000001FF
